{
  "contractName": "todo",
  "abi": [
    {
      "inputs": [],
      "stateMutability": "nonpayable",
      "type": "constructor"
    },
    {
      "anonymous": false,
      "inputs": [
        {
          "indexed": false,
          "internalType": "uint256",
          "name": "id",
          "type": "uint256"
        },
        {
          "indexed": false,
          "internalType": "string",
          "name": "description",
          "type": "string"
        },
        {
          "indexed": false,
          "internalType": "string",
          "name": "status",
          "type": "string"
        },
        {
          "indexed": false,
          "internalType": "uint256",
          "name": "dueDate",
          "type": "uint256"
        },
        {
          "indexed": false,
          "internalType": "enum todo.Priorities",
          "name": "priority",
          "type": "uint8"
        }
      ],
      "name": "TaskCreated",
      "type": "event"
    },
    {
      "anonymous": false,
      "inputs": [
        {
          "indexed": false,
          "internalType": "uint256",
          "name": "id",
          "type": "uint256"
        }
      ],
      "name": "TaskDeleted",
      "type": "event"
    },
    {
      "anonymous": false,
      "inputs": [
        {
          "indexed": false,
          "internalType": "uint256",
          "name": "id",
          "type": "uint256"
        },
        {
          "indexed": false,
          "internalType": "string",
          "name": "prevStatus",
          "type": "string"
        },
        {
          "indexed": false,
          "internalType": "string",
          "name": "newStatus",
          "type": "string"
        }
      ],
      "name": "TaskStatusUpdated",
      "type": "event"
    },
    {
      "inputs": [],
      "name": "taskCounter",
      "outputs": [
        {
          "internalType": "uint256",
          "name": "",
          "type": "uint256"
        }
      ],
      "stateMutability": "view",
      "type": "function",
      "constant": true
    },
    {
      "inputs": [
        {
          "internalType": "uint256",
          "name": "",
          "type": "uint256"
        }
      ],
      "name": "tasks",
      "outputs": [
        {
          "internalType": "uint256",
          "name": "id",
          "type": "uint256"
        },
        {
          "internalType": "string",
          "name": "description",
          "type": "string"
        },
        {
          "internalType": "string",
          "name": "status",
          "type": "string"
        },
        {
          "internalType": "uint256",
          "name": "dueDate",
          "type": "uint256"
        },
        {
          "internalType": "enum todo.Priorities",
          "name": "priority",
          "type": "uint8"
        }
      ],
      "stateMutability": "view",
      "type": "function",
      "constant": true
    },
    {
      "inputs": [
        {
          "internalType": "string",
          "name": "_taskDescription",
          "type": "string"
        },
        {
          "internalType": "string",
          "name": "_status",
          "type": "string"
        },
        {
          "internalType": "uint256",
          "name": "_dueDate",
          "type": "uint256"
        }
      ],
      "name": "createTask",
      "outputs": [],
      "stateMutability": "nonpayable",
      "type": "function"
    },
    {
      "inputs": [
        {
          "internalType": "string",
          "name": "_taskDescription",
          "type": "string"
        },
        {
          "internalType": "string",
          "name": "_status",
          "type": "string"
        },
        {
          "internalType": "uint256",
          "name": "_dueDate",
          "type": "uint256"
        },
        {
          "internalType": "uint256",
          "name": "_priority",
          "type": "uint256"
        }
      ],
      "name": "createTask",
      "outputs": [],
      "stateMutability": "nonpayable",
      "type": "function"
    },
    {
      "inputs": [
        {
          "internalType": "uint256",
          "name": "_id",
          "type": "uint256"
        },
        {
          "internalType": "string",
          "name": "_status",
          "type": "string"
        }
      ],
      "name": "updateTaskStatus",
      "outputs": [],
      "stateMutability": "nonpayable",
      "type": "function"
    },
    {
      "inputs": [
        {
          "internalType": "uint256",
          "name": "_id",
          "type": "uint256"
        }
      ],
      "name": "deleteTask",
      "outputs": [],
      "stateMutability": "nonpayable",
      "type": "function"
    },
    {
      "inputs": [
        {
          "internalType": "uint256",
          "name": "_id",
          "type": "uint256"
        }
      ],
      "name": "getPriority",
      "outputs": [
        {
          "internalType": "string",
          "name": "",
          "type": "string"
        }
      ],
      "stateMutability": "view",
      "type": "function",
      "constant": true
    }
  ],
  "bytecode": "0x60806040526000805534801561001457600080fd5b506114bf806100246000396000f3fe608060405234801561001057600080fd5b506004361061007d5760003560e01c8063763d0f621161005b578063763d0f62146100d857806383aa4d6d146101085780638d97767214610124578063a4a268aa146101585761007d565b806341a4e30a14610082578063560f31921461009e57806358671730146100ba575b600080fd5b61009c60048036038101906100979190610f5f565b610174565b005b6100b860048036038101906100b39190611071565b6102ef565b005b6100c2610383565b6040516100cf9190611167565b60405180910390f35b6100f260048036038101906100ed9190611071565b610389565b6040516100ff9190611145565b60405180910390f35b610122600480360381019061011d919061109a565b610581565b005b61013e60048036038101906101399190611071565b610870565b60405161014f9594939291906111c7565b60405180910390f35b610172600480360381019061016d9190610fde565b6109c3565b005b60008081548092919061018690611348565b91905055506040518060a001604052806000548152602001848152602001838152602001828152602001600060028111156101ea577f4e487b7100000000000000000000000000000000000000000000000000000000600052602160045260246000fd5b8152506001600080548152602001908152602001600020600082015181600001556020820151816001019080519060200190610227929190610dff565b506040820151816002019080519060200190610244929190610dff565b506060820151816003015560808201518160040160006101000a81548160ff021916908360028111156102a0577f4e487b7100000000000000000000000000000000000000000000000000000000600052602160045260246000fd5b02179055509050507fd63078e9fde7c3bd0761e23f0589de9713387dcb57722ebcab4f2fd1e954a2d360005484848460006040516102e29594939291906111c7565b60405180910390a1505050565b6001600082815260200190815260200160002060008082016000905560018201600061031b9190610e85565b60028201600061032b9190610e85565b60038201600090556004820160006101000a81549060ff021916905550507fd078b251d950cc55c44340be1db732337ef4939a76e1367ee271ad2cb19c46af816040516103789190611167565b60405180910390a150565b60005481565b60606000600160008481526020019081526020016000206040518060a0016040529081600082015481526020016001820180546103c590611316565b80601f01602080910402602001604051908101604052809291908181526020018280546103f190611316565b801561043e5780601f106104135761010080835404028352916020019161043e565b820191906000526020600020905b81548152906001019060200180831161042157829003601f168201915b5050505050815260200160028201805461045790611316565b80601f016020809104026020016040519081016040528092919081815260200182805461048390611316565b80156104d05780601f106104a5576101008083540402835291602001916104d0565b820191906000526020600020905b8154815290600101906020018083116104b357829003601f168201915b50505050508152602001600382015481526020016004820160009054906101000a900460ff16600281111561052e577f4e487b7100000000000000000000000000000000000000000000000000000000600052602160045260246000fd5b6002811115610566577f4e487b7100000000000000000000000000000000000000000000000000000000600052602160045260246000fd5b8152505090506105798160800151610b7b565b915050919050565b6000600160008481526020019081526020016000206040518060a0016040529081600082015481526020016001820180546105bb90611316565b80601f01602080910402602001604051908101604052809291908181526020018280546105e790611316565b80156106345780601f1061060957610100808354040283529160200191610634565b820191906000526020600020905b81548152906001019060200180831161061757829003601f168201915b5050505050815260200160028201805461064d90611316565b80601f016020809104026020016040519081016040528092919081815260200182805461067990611316565b80156106c65780601f1061069b576101008083540402835291602001916106c6565b820191906000526020600020905b8154815290600101906020018083116106a957829003601f168201915b50505050508152602001600382015481526020016004820160009054906101000a900460ff166002811115610724577f4e487b7100000000000000000000000000000000000000000000000000000000600052602160045260246000fd5b600281111561075c577f4e487b7100000000000000000000000000000000000000000000000000000000600052602160045260246000fd5b81525050905060008160400151905082826040018190525081600160008681526020019081526020016000206000820151816000015560208201518160010190805190602001906107ae929190610dff565b5060408201518160020190805190602001906107cb929190610dff565b506060820151816003015560808201518160040160006101000a81548160ff02191690836002811115610827577f4e487b7100000000000000000000000000000000000000000000000000000000600052602160045260246000fd5b02179055509050507f40c6f75308ac8a03b159b03a333059dee1a1386b6f79bbae3b3b26d2feee9a5584828560405161086293929190611182565b60405180910390a150505050565b600160205280600052604060002060009150905080600001549080600101805461089990611316565b80601f01602080910402602001604051908101604052809291908181526020018280546108c590611316565b80156109125780601f106108e757610100808354040283529160200191610912565b820191906000526020600020905b8154815290600101906020018083116108f557829003601f168201915b50505050509080600201805461092790611316565b80601f016020809104026020016040519081016040528092919081815260200182805461095390611316565b80156109a05780601f10610975576101008083540402835291602001916109a0565b820191906000526020600020905b81548152906001019060200180831161098357829003601f168201915b5050505050908060030154908060040160009054906101000a900460ff16905085565b6000808154809291906109d590611348565b91905055506000816002811115610a15577f4e487b7100000000000000000000000000000000000000000000000000000000600052602160045260246000fd5b90506040518060a001604052806000548152602001868152602001858152602001848152602001826002811115610a75577f4e487b7100000000000000000000000000000000000000000000000000000000600052602160045260246000fd5b8152506001600080548152602001908152602001600020600082015181600001556020820151816001019080519060200190610ab2929190610dff565b506040820151816002019080519060200190610acf929190610dff565b506060820151816003015560808201518160040160006101000a81548160ff02191690836002811115610b2b577f4e487b7100000000000000000000000000000000000000000000000000000000600052602160045260246000fd5b02179055509050507fd63078e9fde7c3bd0761e23f0589de9713387dcb57722ebcab4f2fd1e954a2d360005486868685604051610b6c9594939291906111c7565b60405180910390a15050505050565b60606002826002811115610bb8577f4e487b7100000000000000000000000000000000000000000000000000000000600052602160045260246000fd5b60ff161115610bc657600080fd5b816002811115610bff577f4e487b7100000000000000000000000000000000000000000000000000000000600052602160045260246000fd5b60006002811115610c39577f4e487b7100000000000000000000000000000000000000000000000000000000600052602160045260246000fd5b1415610c7c576040518060400160405280600381526020017f4c4f5700000000000000000000000000000000000000000000000000000000008152509050610dfa565b816002811115610cb5577f4e487b7100000000000000000000000000000000000000000000000000000000600052602160045260246000fd5b60016002811115610cef577f4e487b7100000000000000000000000000000000000000000000000000000000600052602160045260246000fd5b1415610d32576040518060400160405280600681526020017f4d454449554d00000000000000000000000000000000000000000000000000008152509050610dfa565b816002811115610d6b577f4e487b7100000000000000000000000000000000000000000000000000000000600052602160045260246000fd5b600280811115610da4577f4e487b7100000000000000000000000000000000000000000000000000000000600052602160045260246000fd5b1415610de7576040518060400160405280600481526020017f48494748000000000000000000000000000000000000000000000000000000008152509050610dfa565b6040518060200160405280600081525090505b919050565b828054610e0b90611316565b90600052602060002090601f016020900481019282610e2d5760008555610e74565b82601f10610e4657805160ff1916838001178555610e74565b82800160010185558215610e74579182015b82811115610e73578251825591602001919060010190610e58565b5b509050610e819190610ec5565b5090565b508054610e9190611316565b6000825580601f10610ea35750610ec2565b601f016020900490600052602060002090810190610ec19190610ec5565b5b50565b5b80821115610ede576000816000905550600101610ec6565b5090565b6000610ef5610ef084611259565b611228565b905082815260208101848484011115610f0d57600080fd5b610f188482856112d4565b509392505050565b600082601f830112610f3157600080fd5b8135610f41848260208601610ee2565b91505092915050565b600081359050610f5981611472565b92915050565b600080600060608486031215610f7457600080fd5b600084013567ffffffffffffffff811115610f8e57600080fd5b610f9a86828701610f20565b935050602084013567ffffffffffffffff811115610fb757600080fd5b610fc386828701610f20565b9250506040610fd486828701610f4a565b9150509250925092565b60008060008060808587031215610ff457600080fd5b600085013567ffffffffffffffff81111561100e57600080fd5b61101a87828801610f20565b945050602085013567ffffffffffffffff81111561103757600080fd5b61104387828801610f20565b935050604061105487828801610f4a565b925050606061106587828801610f4a565b91505092959194509250565b60006020828403121561108357600080fd5b600061109184828501610f4a565b91505092915050565b600080604083850312156110ad57600080fd5b60006110bb85828601610f4a565b925050602083013567ffffffffffffffff8111156110d857600080fd5b6110e485828601610f20565b9150509250929050565b6110f7816112c2565b82525050565b600061110882611289565b6111128185611294565b93506111228185602086016112e3565b61112b8161144d565b840191505092915050565b61113f816112b8565b82525050565b6000602082019050818103600083015261115f81846110fd565b905092915050565b600060208201905061117c6000830184611136565b92915050565b60006060820190506111976000830186611136565b81810360208301526111a981856110fd565b905081810360408301526111bd81846110fd565b9050949350505050565b600060a0820190506111dc6000830188611136565b81810360208301526111ee81876110fd565b9050818103604083015261120281866110fd565b90506112116060830185611136565b61121e60808301846110ee565b9695505050505050565b6000604051905081810181811067ffffffffffffffff8211171561124f5761124e61141e565b5b8060405250919050565b600067ffffffffffffffff8211156112745761127361141e565b5b601f19601f8301169050602081019050919050565b600081519050919050565b600082825260208201905092915050565b60008190506112b38261145e565b919050565b6000819050919050565b60006112cd826112a5565b9050919050565b82818337600083830152505050565b60005b838110156113015780820151818401526020810190506112e6565b83811115611310576000848401525b50505050565b6000600282049050600182168061132e57607f821691505b60208210811415611342576113416113ef565b5b50919050565b6000611353826112b8565b91507fffffffffffffffffffffffffffffffffffffffffffffffffffffffffffffffff82141561138657611385611391565b5b600182019050919050565b7f4e487b7100000000000000000000000000000000000000000000000000000000600052601160045260246000fd5b7f4e487b7100000000000000000000000000000000000000000000000000000000600052602160045260246000fd5b7f4e487b7100000000000000000000000000000000000000000000000000000000600052602260045260246000fd5b7f4e487b7100000000000000000000000000000000000000000000000000000000600052604160045260246000fd5b6000601f19601f8301169050919050565b6003811061146f5761146e6113c0565b5b50565b61147b816112b8565b811461148657600080fd5b5056fea26469706673582212206954f64e3ee22acdd5593391517fd689f950003cd7d6e2ac18d448f3a872aef564736f6c63430008000033",
  "immutableReferences": {},
  "source": "pragma solidity 0.8.0;\n\n// SPDX-License-Identifier: MIT\n\ncontract todo {\n    uint public taskCounter = 0;\n    mapping(uint => Task) public tasks;\n    enum Priorities { LOW, MEDIUM, HIGH}\n    Priorities constant defaultPriority = Priorities.LOW;\n\n    struct Task {\n        uint id;\n        string description;\n        string status;\n        uint256 dueDate;\n        Priorities priority;\n    }\n\n    event TaskCreated(\n        uint id,\n        string description,\n        string status,\n        uint256 dueDate,\n        Priorities priority\n    );\n\n    event TaskStatusUpdated(\n        uint id,\n        string prevStatus,\n        string newStatus\n    );\n\n    event TaskDeleted(\n        uint id\n    );\n\n    constructor() {\n    }\n\n    function createTask(string memory _taskDescription, string memory _status, uint256 _dueDate ) public {\n        taskCounter++;\n        tasks[taskCounter] = Task(taskCounter, _taskDescription, _status, _dueDate, defaultPriority);\n        emit TaskCreated(taskCounter, _taskDescription, _status, _dueDate, defaultPriority);\n    }\n\n    function createTask(string memory _taskDescription, string memory _status, uint256 _dueDate, uint _priority ) public {\n        taskCounter++;\n        Priorities priority = Priorities(_priority);\n        tasks[taskCounter] = Task(taskCounter, _taskDescription, _status, _dueDate, priority);\n        emit TaskCreated(taskCounter, _taskDescription, _status, _dueDate, priority);\n    }\n\n    function updateTaskStatus(uint _id, string memory _status) public {\n        Task memory _task = tasks[_id];\n        string memory _prevStatus = _task.status;\n        _task.status = _status;\n        tasks[_id] = _task;\n        emit TaskStatusUpdated(_id, _prevStatus, _status);\n    }\n\n    function deleteTask(uint _id) public {\n        delete tasks[_id];\n        emit TaskDeleted(_id);\n    }\n\n    function getPriority(uint _id) public view returns (string memory) {\n        Task memory _task = tasks[_id];\n        return getPriorityWithInt(_task.priority);\n    }\n\n    function getPriorityWithInt(Priorities _priority) internal pure returns (string memory) {\n        require(uint8(_priority) <= 2);\n\n        if (Priorities.LOW == _priority) return \"LOW\";\n        if (Priorities.MEDIUM == _priority) return \"MEDIUM\";\n        if (Priorities.HIGH == _priority) return \"HIGH\";\n\n        return \"\";\n    }\n}",
  "sourcePath": "/Users/clement/private/todo_list/contracts/todo.sol",
  "compiler": {
    "name": "solc",
    "version": "0.8.0+commit.c7dfd78e.Emscripten.clang"
  },
  "schemaVersion": "3.4.1",
  "updatedAt": "2022-01-15T18:52:36.320Z",
  "networkType": "ethereum",
  "devdoc": {
    "kind": "dev",
    "methods": {},
    "version": 1
  },
  "userdoc": {
    "kind": "user",
    "methods": {},
    "version": 1
  }
}