{
  "contractName": "todo",
  "abi": [
    {
      "inputs": [],
      "stateMutability": "nonpayable",
      "type": "constructor"
    },
    {
      "anonymous": false,
      "inputs": [
        {
          "indexed": false,
          "internalType": "uint256",
          "name": "id",
          "type": "uint256"
        }
      ],
      "name": "TaskCompleted",
      "type": "event"
    },
    {
      "anonymous": false,
      "inputs": [
        {
          "indexed": false,
          "internalType": "uint256",
          "name": "id",
          "type": "uint256"
        },
        {
          "indexed": false,
          "internalType": "string",
          "name": "_taskDescription",
          "type": "string"
        }
      ],
      "name": "TaskCreated",
      "type": "event"
    },
    {
      "anonymous": false,
      "inputs": [
        {
          "indexed": false,
          "internalType": "uint256",
          "name": "id",
          "type": "uint256"
        }
      ],
      "name": "TaskDeleted",
      "type": "event"
    },
    {
      "inputs": [],
      "name": "taskCounter",
      "outputs": [
        {
          "internalType": "uint256",
          "name": "",
          "type": "uint256"
        }
      ],
      "stateMutability": "view",
      "type": "function",
      "constant": true
    },
    {
      "inputs": [
        {
          "internalType": "uint256",
          "name": "",
          "type": "uint256"
        }
      ],
      "name": "tasks",
      "outputs": [
        {
          "internalType": "uint256",
          "name": "id",
          "type": "uint256"
        },
        {
          "internalType": "string",
          "name": "description",
          "type": "string"
        },
        {
          "internalType": "bool",
          "name": "completed",
          "type": "bool"
        }
      ],
      "stateMutability": "view",
      "type": "function",
      "constant": true
    },
    {
      "inputs": [
        {
          "internalType": "string",
          "name": "_taskDescription",
          "type": "string"
        }
      ],
      "name": "create",
      "outputs": [],
      "stateMutability": "nonpayable",
      "type": "function"
    },
    {
      "inputs": [
        {
          "internalType": "uint256",
          "name": "_id",
          "type": "uint256"
        }
      ],
      "name": "completeTask",
      "outputs": [],
      "stateMutability": "nonpayable",
      "type": "function"
    },
    {
      "inputs": [
        {
          "internalType": "uint256",
          "name": "_id",
          "type": "uint256"
        }
      ],
      "name": "deleteTask",
      "outputs": [],
      "stateMutability": "nonpayable",
      "type": "function"
    }
  ],
  "bytecode": "0x60806040526000805534801561001457600080fd5b5061097c806100246000396000f3fe608060405234801561001057600080fd5b50600436106100575760003560e01c8063560f31921461005c57806358671730146100785780638d97767214610096578063b6a46b3b146100c8578063e1e29558146100e4575b600080fd5b61007660048036038101906100719190610638565b610100565b005b61008061017c565b60405161008d91906106b8565b60405180910390f35b6100b060048036038101906100ab9190610638565b610182565b6040516100bf93929190610703565b60405180910390f35b6100e260048036038101906100dd91906105f7565b610241565b005b6100fe60048036038101906100f99190610638565b610314565b005b6001600082815260200190815260200160002060008082016000905560018201600061012c9190610497565b6002820160006101000a81549060ff021916905550507fd078b251d950cc55c44340be1db732337ef4939a76e1367ee271ad2cb19c46af8160405161017191906106b8565b60405180910390a150565b60005481565b60016020528060005260406000206000915090508060000154908060010180546101ab90610816565b80601f01602080910402602001604051908101604052809291908181526020018280546101d790610816565b80156102245780601f106101f957610100808354040283529160200191610224565b820191906000526020600020905b81548152906001019060200180831161020757829003601f168201915b5050505050908060020160009054906101000a900460ff16905083565b60008081548092919061025390610848565b9190505550604051806060016040528060005481526020018281526020016000151581525060016000805481526020019081526020016000206000820151816000015560208201518160010190805190602001906102b29291906104d7565b5060408201518160020160006101000a81548160ff0219169083151502179055509050507fa5ed9e6226c584326505694539c95cb0e3238ae09bcda5a65c00bbfdab1c6662600054826040516103099291906106d3565b60405180910390a150565b6000600160008381526020019081526020016000206040518060600160405290816000820154815260200160018201805461034e90610816565b80601f016020809104026020016040519081016040528092919081815260200182805461037a90610816565b80156103c75780601f1061039c576101008083540402835291602001916103c7565b820191906000526020600020905b8154815290600101906020018083116103aa57829003601f168201915b505050505081526020016002820160009054906101000a900460ff1615151515815250509050600181604001901515908115158152505080600160008481526020019081526020016000206000820151816000015560208201518160010190805190602001906104389291906104d7565b5060408201518160020160006101000a81548160ff0219169083151502179055509050507fc1fa7142cfb933d0855114a3bffde296944c30b727f297c14d0db4d553d3a5c78260405161048b91906106b8565b60405180910390a15050565b5080546104a390610816565b6000825580601f106104b557506104d4565b601f0160209004906000526020600020908101906104d3919061055d565b5b50565b8280546104e390610816565b90600052602060002090601f016020900481019282610505576000855561054c565b82601f1061051e57805160ff191683800117855561054c565b8280016001018555821561054c579182015b8281111561054b578251825591602001919060010190610530565b5b509050610559919061055d565b5090565b5b8082111561057657600081600090555060010161055e565b5090565b600061058d61058884610772565b610741565b9050828152602081018484840111156105a557600080fd5b6105b08482856107d4565b509392505050565b600082601f8301126105c957600080fd5b81356105d984826020860161057a565b91505092915050565b6000813590506105f18161092f565b92915050565b60006020828403121561060957600080fd5b600082013567ffffffffffffffff81111561062357600080fd5b61062f848285016105b8565b91505092915050565b60006020828403121561064a57600080fd5b6000610658848285016105e2565b91505092915050565b61066a816107be565b82525050565b600061067b826107a2565b61068581856107ad565b93506106958185602086016107e3565b61069e8161091e565b840191505092915050565b6106b2816107ca565b82525050565b60006020820190506106cd60008301846106a9565b92915050565b60006040820190506106e860008301856106a9565b81810360208301526106fa8184610670565b90509392505050565b600060608201905061071860008301866106a9565b818103602083015261072a8185610670565b90506107396040830184610661565b949350505050565b6000604051905081810181811067ffffffffffffffff82111715610768576107676108ef565b5b8060405250919050565b600067ffffffffffffffff82111561078d5761078c6108ef565b5b601f19601f8301169050602081019050919050565b600081519050919050565b600082825260208201905092915050565b60008115159050919050565b6000819050919050565b82818337600083830152505050565b60005b838110156108015780820151818401526020810190506107e6565b83811115610810576000848401525b50505050565b6000600282049050600182168061082e57607f821691505b60208210811415610842576108416108c0565b5b50919050565b6000610853826107ca565b91507fffffffffffffffffffffffffffffffffffffffffffffffffffffffffffffffff82141561088657610885610891565b5b600182019050919050565b7f4e487b7100000000000000000000000000000000000000000000000000000000600052601160045260246000fd5b7f4e487b7100000000000000000000000000000000000000000000000000000000600052602260045260246000fd5b7f4e487b7100000000000000000000000000000000000000000000000000000000600052604160045260246000fd5b6000601f19601f8301169050919050565b610938816107ca565b811461094357600080fd5b5056fea2646970667358221220f4ef83b71644a5311722e82af356b45a1073108ff82b246766fcccef1b6a533b64736f6c63430008000033",
  "immutableReferences": {},
  "source": "pragma solidity 0.8.0;\n\n// SPDX-License-Identifier: MIT\n\ncontract todo {\n    uint public taskCounter = 0;\n    mapping(uint => Task) public tasks;\n\n    struct Task {\n        uint id;\n        string description;\n        bool completed;\n    }\n\n    event TaskCreated(\n        uint id,\n        string _taskDescription\n    );\n\n    event TaskCompleted(\n        uint id\n    );\n\n    event TaskDeleted(\n        uint id\n    );\n\n    constructor() public {\n    }\n\n    function create(string memory _taskDescription) public {\n        taskCounter++;\n        tasks[taskCounter] = Task(taskCounter, _taskDescription, false);\n        emit TaskCreated(taskCounter, _taskDescription);\n    }\n\n    function completeTask(uint _id) public {\n        Task memory _task = tasks[_id];\n        _task.completed = true;\n        tasks[_id] = _task;\n        emit TaskCompleted(_id);\n    }\n\n    function deleteTask(uint _id) public {\n        delete tasks[_id];\n        emit TaskDeleted(_id);\n    }\n}",
  "sourcePath": "/Users/clement/private/todo_list/contracts/todo.sol",
  "compiler": {
    "name": "solc",
    "version": "0.8.0+commit.c7dfd78e.Emscripten.clang"
  },
  "schemaVersion": "3.4.1",
  "updatedAt": "2022-01-14T08:21:41.245Z",
  "networkType": "ethereum",
  "devdoc": {
    "kind": "dev",
    "methods": {},
    "version": 1
  },
  "userdoc": {
    "kind": "user",
    "methods": {},
    "version": 1
  }
}