{
  "contractName": "todo",
  "abi": [
    {
      "inputs": [],
      "stateMutability": "nonpayable",
      "type": "constructor"
    },
    {
      "anonymous": false,
      "inputs": [
        {
          "indexed": false,
          "internalType": "address",
          "name": "friend",
          "type": "address"
        }
      ],
      "name": "FriendAdded",
      "type": "event"
    },
    {
      "anonymous": false,
      "inputs": [
        {
          "indexed": false,
          "internalType": "address",
          "name": "friend",
          "type": "address"
        }
      ],
      "name": "FriendRemoved",
      "type": "event"
    },
    {
      "anonymous": false,
      "inputs": [
        {
          "indexed": false,
          "internalType": "uint256",
          "name": "id",
          "type": "uint256"
        },
        {
          "indexed": false,
          "internalType": "string",
          "name": "description",
          "type": "string"
        },
        {
          "indexed": false,
          "internalType": "string",
          "name": "status",
          "type": "string"
        },
        {
          "indexed": false,
          "internalType": "uint256",
          "name": "dueDate",
          "type": "uint256"
        },
        {
          "indexed": false,
          "internalType": "bool",
          "name": "privateTask",
          "type": "bool"
        },
        {
          "indexed": false,
          "internalType": "enum todo.Priorities",
          "name": "priority",
          "type": "uint8"
        }
      ],
      "name": "TaskCreated",
      "type": "event"
    },
    {
      "anonymous": false,
      "inputs": [
        {
          "indexed": false,
          "internalType": "uint256",
          "name": "id",
          "type": "uint256"
        }
      ],
      "name": "TaskDeleted",
      "type": "event"
    },
    {
      "anonymous": false,
      "inputs": [
        {
          "indexed": false,
          "internalType": "uint256",
          "name": "id",
          "type": "uint256"
        },
        {
          "indexed": false,
          "internalType": "string",
          "name": "prevStatus",
          "type": "string"
        },
        {
          "indexed": false,
          "internalType": "string",
          "name": "newStatus",
          "type": "string"
        }
      ],
      "name": "TaskStatusUpdated",
      "type": "event"
    },
    {
      "inputs": [],
      "name": "currentIndex",
      "outputs": [
        {
          "internalType": "uint256",
          "name": "",
          "type": "uint256"
        }
      ],
      "stateMutability": "view",
      "type": "function",
      "constant": true
    },
    {
      "inputs": [
        {
          "internalType": "uint256",
          "name": "",
          "type": "uint256"
        }
      ],
      "name": "friends",
      "outputs": [
        {
          "internalType": "address",
          "name": "",
          "type": "address"
        }
      ],
      "stateMutability": "view",
      "type": "function",
      "constant": true
    },
    {
      "inputs": [],
      "name": "owner",
      "outputs": [
        {
          "internalType": "address",
          "name": "",
          "type": "address"
        }
      ],
      "stateMutability": "view",
      "type": "function",
      "constant": true
    },
    {
      "inputs": [],
      "name": "totalFriends",
      "outputs": [
        {
          "internalType": "uint256",
          "name": "",
          "type": "uint256"
        }
      ],
      "stateMutability": "view",
      "type": "function",
      "constant": true
    },
    {
      "inputs": [],
      "name": "totalTasks",
      "outputs": [
        {
          "internalType": "uint256",
          "name": "",
          "type": "uint256"
        }
      ],
      "stateMutability": "view",
      "type": "function",
      "constant": true
    },
    {
      "inputs": [
        {
          "internalType": "string",
          "name": "_taskDescription",
          "type": "string"
        },
        {
          "internalType": "string",
          "name": "_status",
          "type": "string"
        },
        {
          "internalType": "uint256",
          "name": "_dueDate",
          "type": "uint256"
        },
        {
          "internalType": "bool",
          "name": "_privateTask",
          "type": "bool"
        }
      ],
      "name": "createTask",
      "outputs": [],
      "stateMutability": "nonpayable",
      "type": "function"
    },
    {
      "inputs": [
        {
          "internalType": "string",
          "name": "_taskDescription",
          "type": "string"
        },
        {
          "internalType": "string",
          "name": "_status",
          "type": "string"
        },
        {
          "internalType": "uint256",
          "name": "_dueDate",
          "type": "uint256"
        },
        {
          "internalType": "bool",
          "name": "_privateTask",
          "type": "bool"
        },
        {
          "internalType": "uint256",
          "name": "_priority",
          "type": "uint256"
        }
      ],
      "name": "createTask",
      "outputs": [],
      "stateMutability": "nonpayable",
      "type": "function"
    },
    {
      "inputs": [
        {
          "internalType": "uint256",
          "name": "_id",
          "type": "uint256"
        },
        {
          "internalType": "string",
          "name": "_status",
          "type": "string"
        }
      ],
      "name": "updateTaskStatus",
      "outputs": [],
      "stateMutability": "nonpayable",
      "type": "function"
    },
    {
      "inputs": [
        {
          "internalType": "uint256",
          "name": "_id",
          "type": "uint256"
        }
      ],
      "name": "deleteTask",
      "outputs": [],
      "stateMutability": "nonpayable",
      "type": "function"
    },
    {
      "inputs": [
        {
          "internalType": "address",
          "name": "_toAdd",
          "type": "address"
        }
      ],
      "name": "addFriend",
      "outputs": [],
      "stateMutability": "nonpayable",
      "type": "function"
    },
    {
      "inputs": [
        {
          "internalType": "address",
          "name": "_toRemove",
          "type": "address"
        }
      ],
      "name": "removeFriend",
      "outputs": [],
      "stateMutability": "nonpayable",
      "type": "function"
    },
    {
      "inputs": [
        {
          "internalType": "uint256",
          "name": "_id",
          "type": "uint256"
        }
      ],
      "name": "getPriority",
      "outputs": [
        {
          "internalType": "string",
          "name": "",
          "type": "string"
        }
      ],
      "stateMutability": "view",
      "type": "function",
      "constant": true
    },
    {
      "inputs": [],
      "name": "getTasks",
      "outputs": [
        {
          "components": [
            {
              "internalType": "uint256",
              "name": "id",
              "type": "uint256"
            },
            {
              "internalType": "string",
              "name": "description",
              "type": "string"
            },
            {
              "internalType": "string",
              "name": "status",
              "type": "string"
            },
            {
              "internalType": "uint256",
              "name": "dueDate",
              "type": "uint256"
            },
            {
              "internalType": "bool",
              "name": "privateTask",
              "type": "bool"
            },
            {
              "internalType": "enum todo.Priorities",
              "name": "priority",
              "type": "uint8"
            }
          ],
          "internalType": "struct todo.Task[]",
          "name": "",
          "type": "tuple[]"
        }
      ],
      "stateMutability": "view",
      "type": "function",
      "constant": true
    }
  ],
  "bytecode": "0x608060405260006001556000600255600060035534801561001f57600080fd5b50336000806101000a81548173ffffffffffffffffffffffffffffffffffffffff021916908373ffffffffffffffffffffffffffffffffffffffff1602179055506128bd8061006f6000396000f3fe608060405234801561001057600080fd5b50600436106100cf5760003560e01c8063763d0f621161008c5780638da5cb5b116100665780638da5cb5b146101ea578063ce14682814610208578063d22c81e514610238578063d7a1cfe114610256576100cf565b8063763d0f621461018257806380cee8a5146101b257806383aa4d6d146101ce576100cf565b806304a87e38146100d4578063066d6e05146100f2578063129786b11461011057806326987b601461012c57806327e82a431461014a578063560f319214610166575b600080fd5b6100dc610272565b6040516100e991906123d4565b60405180910390f35b6100fa61099e565b6040516101079190612438565b60405180910390f35b61012a60048036038101906101259190611f31565b6109a4565b005b610134610b64565b6040516101419190612438565b60405180910390f35b610164600480360381019061015f9190611fc4565b610b6a565b005b610180600480360381019061017b919061206b565b610d67565b005b61019c6004803603810190610197919061206b565b6110cf565b6040516101a991906123f6565b60405180910390f35b6101cc60048036038101906101c79190611f08565b6112e2565b005b6101e860048036038101906101e39190612094565b611556565b005b6101f2611880565b6040516101ff91906123b9565b60405180910390f35b610222600480360381019061021d919061206b565b6118a4565b60405161022f91906123b9565b60405180910390f35b6102406118e3565b60405161024d9190612438565b60405180910390f35b610270600480360381019061026b9190611f08565b6118e9565b005b606061027d3361199e565b6102bc576040517f08c379a00000000000000000000000000000000000000000000000000000000081526004016102b390612418565b60405180910390fd5b600060015467ffffffffffffffff811115610300577f4e487b7100000000000000000000000000000000000000000000000000000000600052604160045260246000fd5b60405190808252806020026020018201604052801561032e5781602001602082028036833780820191505090505b5090506000805b600154811015610662576000600460008381526020019081526020016000206040518060c001604052908160008201548152602001600182018054610379906126e6565b80601f01602080910402602001604051908101604052809291908181526020018280546103a5906126e6565b80156103f25780601f106103c7576101008083540402835291602001916103f2565b820191906000526020600020905b8154815290600101906020018083116103d557829003601f168201915b5050505050815260200160028201805461040b906126e6565b80601f0160208091040260200160405190810160405280929190818152602001828054610437906126e6565b80156104845780601f1061045957610100808354040283529160200191610484565b820191906000526020600020905b81548152906001019060200180831161046757829003601f168201915b50505050508152602001600382015481526020016004820160009054906101000a900460ff161515151581526020016004820160019054906101000a900460ff1660028111156104fd577f4e487b7100000000000000000000000000000000000000000000000000000000600052602160045260246000fd5b6002811115610535577f4e487b7100000000000000000000000000000000000000000000000000000000600052602160045260246000fd5b81525050905060405160200161054a906123a4565b604051602081830303815290604052805190602001208160400151604051602001610575919061238d565b604051602081830303815290604052805190602001201461064e5760008054906101000a900473ffffffffffffffffffffffffffffffffffffffff1673ffffffffffffffffffffffffffffffffffffffff163373ffffffffffffffffffffffffffffffffffffffff1614806105ec57508060800151155b1561064d57600184838151811061062c577f4e487b7100000000000000000000000000000000000000000000000000000000600052603260045260246000fd5b602002602001019015159081151581525050828061064990612718565b9350505b5b50808061065a90612718565b915050610335565b5060008167ffffffffffffffff8111156106a5577f4e487b7100000000000000000000000000000000000000000000000000000000600052604160045260246000fd5b6040519080825280602002602001820160405280156106de57816020015b6106cb611d4e565b8152602001906001900390816106c35790505b5090506000805b60015481101561099357848181518110610728577f4e487b7100000000000000000000000000000000000000000000000000000000600052603260045260246000fd5b60200260200101511561098057600460008281526020019081526020016000206040518060c00160405290816000820154815260200160018201805461076d906126e6565b80601f0160208091040260200160405190810160405280929190818152602001828054610799906126e6565b80156107e65780601f106107bb576101008083540402835291602001916107e6565b820191906000526020600020905b8154815290600101906020018083116107c957829003601f168201915b505050505081526020016002820180546107ff906126e6565b80601f016020809104026020016040519081016040528092919081815260200182805461082b906126e6565b80156108785780601f1061084d57610100808354040283529160200191610878565b820191906000526020600020905b81548152906001019060200180831161085b57829003601f168201915b50505050508152602001600382015481526020016004820160009054906101000a900460ff161515151581526020016004820160019054906101000a900460ff1660028111156108f1577f4e487b7100000000000000000000000000000000000000000000000000000000600052602160045260246000fd5b6002811115610929577f4e487b7100000000000000000000000000000000000000000000000000000000600052602160045260246000fd5b81525050838381518110610966577f4e487b7100000000000000000000000000000000000000000000000000000000600052603260045260246000fd5b6020026020010181905250818061097c90612718565b9250505b808061098b90612718565b9150506106e5565b508194505050505090565b60025481565b6040518060c001604052806001548152602001858152602001848152602001838152602001821515815260200160006002811115610a0b577f4e487b7100000000000000000000000000000000000000000000000000000000600052602160045260246000fd5b815250600460006001548152602001908152602001600020600082015181600001556020820151816001019080519060200190610a49929190611dbe565b506040820151816002019080519060200190610a66929190611dbe565b506060820151816003015560808201518160040160006101000a81548160ff02191690831515021790555060a08201518160040160016101000a81548160ff02191690836002811115610ae2577f4e487b7100000000000000000000000000000000000000000000000000000000600052602160045260246000fd5b02179055509050507f285011ffffda7206befeb5fdb5e12d2a4c4b8467c7816f808411b2e6e064ee07600154858585856000604051610b2696959493929190612498565b60405180910390a160016000815480929190610b4190612718565b919050555060036000815480929190610b5990612718565b919050555050505050565b60015481565b6000816002811115610ba5577f4e487b7100000000000000000000000000000000000000000000000000000000600052602160045260246000fd5b90506040518060c0016040528060015481526020018781526020018681526020018581526020018415158152602001826002811115610c0d577f4e487b7100000000000000000000000000000000000000000000000000000000600052602160045260246000fd5b815250600460006001548152602001908152602001600020600082015181600001556020820151816001019080519060200190610c4b929190611dbe565b506040820151816002019080519060200190610c68929190611dbe565b506060820151816003015560808201518160040160006101000a81548160ff02191690831515021790555060a08201518160040160016101000a81548160ff02191690836002811115610ce4577f4e487b7100000000000000000000000000000000000000000000000000000000600052602160045260246000fd5b02179055509050507f285011ffffda7206befeb5fdb5e12d2a4c4b8467c7816f808411b2e6e064ee076001548787878786604051610d2796959493929190612498565b60405180910390a160016000815480929190610d4290612718565b919050555060036000815480929190610d5a90612718565b9190505550505050505050565b6000600460008381526020019081526020016000206040518060c001604052908160008201548152602001600182018054610da1906126e6565b80601f0160208091040260200160405190810160405280929190818152602001828054610dcd906126e6565b8015610e1a5780601f10610def57610100808354040283529160200191610e1a565b820191906000526020600020905b815481529060010190602001808311610dfd57829003601f168201915b50505050508152602001600282018054610e33906126e6565b80601f0160208091040260200160405190810160405280929190818152602001828054610e5f906126e6565b8015610eac5780601f10610e8157610100808354040283529160200191610eac565b820191906000526020600020905b815481529060010190602001808311610e8f57829003601f168201915b50505050508152602001600382015481526020016004820160009054906101000a900460ff161515151581526020016004820160019054906101000a900460ff166002811115610f25577f4e487b7100000000000000000000000000000000000000000000000000000000600052602160045260246000fd5b6002811115610f5d577f4e487b7100000000000000000000000000000000000000000000000000000000600052602160045260246000fd5b8152505090506040518060400160405280600781526020017f64656c657465640000000000000000000000000000000000000000000000000081525081604001819052508060046000848152602001908152602001600020600082015181600001556020820151816001019080519060200190610fdb929190611dbe565b506040820151816002019080519060200190610ff8929190611dbe565b506060820151816003015560808201518160040160006101000a81548160ff02191690831515021790555060a08201518160040160016101000a81548160ff02191690836002811115611074577f4e487b7100000000000000000000000000000000000000000000000000000000600052602160045260246000fd5b02179055509050506003600081548092919061108f906126bc565b91905055507fd078b251d950cc55c44340be1db732337ef4939a76e1367ee271ad2cb19c46af826040516110c39190612438565b60405180910390a15050565b60606000600460008481526020019081526020016000206040518060c00160405290816000820154815260200160018201805461110b906126e6565b80601f0160208091040260200160405190810160405280929190818152602001828054611137906126e6565b80156111845780601f1061115957610100808354040283529160200191611184565b820191906000526020600020905b81548152906001019060200180831161116757829003601f168201915b5050505050815260200160028201805461119d906126e6565b80601f01602080910402602001604051908101604052809291908181526020018280546111c9906126e6565b80156112165780601f106111eb57610100808354040283529160200191611216565b820191906000526020600020905b8154815290600101906020018083116111f957829003601f168201915b50505050508152602001600382015481526020016004820160009054906101000a900460ff161515151581526020016004820160019054906101000a900460ff16600281111561128f577f4e487b7100000000000000000000000000000000000000000000000000000000600052602160045260246000fd5b60028111156112c7577f4e487b7100000000000000000000000000000000000000000000000000000000600052602160045260246000fd5b8152505090506112da8160a00151611aca565b915050919050565b60005b600580549050811015611552578173ffffffffffffffffffffffffffffffffffffffff1660058281548110611343577f4e487b7100000000000000000000000000000000000000000000000000000000600052603260045260246000fd5b9060005260206000200160009054906101000a900473ffffffffffffffffffffffffffffffffffffffff1673ffffffffffffffffffffffffffffffffffffffff16141561153f576005600160058054905061139e91906125d9565b815481106113d5577f4e487b7100000000000000000000000000000000000000000000000000000000600052603260045260246000fd5b9060005260206000200160009054906101000a900473ffffffffffffffffffffffffffffffffffffffff166005828154811061143a577f4e487b7100000000000000000000000000000000000000000000000000000000600052603260045260246000fd5b9060005260206000200160006101000a81548173ffffffffffffffffffffffffffffffffffffffff021916908373ffffffffffffffffffffffffffffffffffffffff16021790555060058054806114ba577f4e487b7100000000000000000000000000000000000000000000000000000000600052603160045260246000fd5b6001900381819060005260206000200160006101000a81549073ffffffffffffffffffffffffffffffffffffffff0219169055905560026000815480929190611502906126bc565b91905055507fdf33258b68a0f7bc14cb0d28dd33feae582f5b4e758e74b97056debaef5605f58260405161153691906123b9565b60405180910390a15b808061154a90612718565b9150506112e5565b5050565b6000600460008481526020019081526020016000206040518060c001604052908160008201548152602001600182018054611590906126e6565b80601f01602080910402602001604051908101604052809291908181526020018280546115bc906126e6565b80156116095780601f106115de57610100808354040283529160200191611609565b820191906000526020600020905b8154815290600101906020018083116115ec57829003601f168201915b50505050508152602001600282018054611622906126e6565b80601f016020809104026020016040519081016040528092919081815260200182805461164e906126e6565b801561169b5780601f106116705761010080835404028352916020019161169b565b820191906000526020600020905b81548152906001019060200180831161167e57829003601f168201915b50505050508152602001600382015481526020016004820160009054906101000a900460ff161515151581526020016004820160019054906101000a900460ff166002811115611714577f4e487b7100000000000000000000000000000000000000000000000000000000600052602160045260246000fd5b600281111561174c577f4e487b7100000000000000000000000000000000000000000000000000000000600052602160045260246000fd5b815250509050600081604001519050828260400181905250816004600086815260200190815260200160002060008201518160000155602082015181600101908051906020019061179e929190611dbe565b5060408201518160020190805190602001906117bb929190611dbe565b506060820151816003015560808201518160040160006101000a81548160ff02191690831515021790555060a08201518160040160016101000a81548160ff02191690836002811115611837577f4e487b7100000000000000000000000000000000000000000000000000000000600052602160045260246000fd5b02179055509050507f40c6f75308ac8a03b159b03a333059dee1a1386b6f79bbae3b3b26d2feee9a5584828560405161187293929190612453565b60405180910390a150505050565b60008054906101000a900473ffffffffffffffffffffffffffffffffffffffff1681565b600581815481106118b457600080fd5b906000526020600020016000915054906101000a900473ffffffffffffffffffffffffffffffffffffffff1681565b60035481565b6005819080600181540180825580915050600190039060005260206000200160009091909190916101000a81548173ffffffffffffffffffffffffffffffffffffffff021916908373ffffffffffffffffffffffffffffffffffffffff1602179055506002600081548092919061195f90612718565b91905055507f87a03b7dd3bab3f20f4d7e0f02004b6c2eeb1762a78bcfa2c9480fc6185329a48160405161199391906123b9565b60405180910390a150565b6000806000905060008054906101000a900473ffffffffffffffffffffffffffffffffffffffff1673ffffffffffffffffffffffffffffffffffffffff168373ffffffffffffffffffffffffffffffffffffffff161415611a025760019050611ac1565b60005b600254811015611abf578373ffffffffffffffffffffffffffffffffffffffff1660058281548110611a60577f4e487b7100000000000000000000000000000000000000000000000000000000600052603260045260246000fd5b9060005260206000200160009054906101000a900473ffffffffffffffffffffffffffffffffffffffff1673ffffffffffffffffffffffffffffffffffffffff161415611aac57600191505b8080611ab790612718565b915050611a05565b505b80915050919050565b60606002826002811115611b07577f4e487b7100000000000000000000000000000000000000000000000000000000600052602160045260246000fd5b60ff161115611b1557600080fd5b816002811115611b4e577f4e487b7100000000000000000000000000000000000000000000000000000000600052602160045260246000fd5b60006002811115611b88577f4e487b7100000000000000000000000000000000000000000000000000000000600052602160045260246000fd5b1415611bcb576040518060400160405280600381526020017f4c4f5700000000000000000000000000000000000000000000000000000000008152509050611d49565b816002811115611c04577f4e487b7100000000000000000000000000000000000000000000000000000000600052602160045260246000fd5b60016002811115611c3e577f4e487b7100000000000000000000000000000000000000000000000000000000600052602160045260246000fd5b1415611c81576040518060400160405280600681526020017f4d454449554d00000000000000000000000000000000000000000000000000008152509050611d49565b816002811115611cba577f4e487b7100000000000000000000000000000000000000000000000000000000600052602160045260246000fd5b600280811115611cf3577f4e487b7100000000000000000000000000000000000000000000000000000000600052602160045260246000fd5b1415611d36576040518060400160405280600481526020017f48494748000000000000000000000000000000000000000000000000000000008152509050611d49565b6040518060200160405280600081525090505b919050565b6040518060c001604052806000815260200160608152602001606081526020016000815260200160001515815260200160006002811115611db8577f4e487b7100000000000000000000000000000000000000000000000000000000600052602160045260246000fd5b81525090565b828054611dca906126e6565b90600052602060002090601f016020900481019282611dec5760008555611e33565b82601f10611e0557805160ff1916838001178555611e33565b82800160010185558215611e33579182015b82811115611e32578251825591602001919060010190611e17565b5b509050611e409190611e44565b5090565b5b80821115611e5d576000816000905550600101611e45565b5090565b6000611e74611e6f84612538565b612507565b905082815260208101848484011115611e8c57600080fd5b611e9784828561267a565b509392505050565b600081359050611eae81612842565b92915050565b600081359050611ec381612859565b92915050565b600082601f830112611eda57600080fd5b8135611eea848260208601611e61565b91505092915050565b600081359050611f0281612870565b92915050565b600060208284031215611f1a57600080fd5b6000611f2884828501611e9f565b91505092915050565b60008060008060808587031215611f4757600080fd5b600085013567ffffffffffffffff811115611f6157600080fd5b611f6d87828801611ec9565b945050602085013567ffffffffffffffff811115611f8a57600080fd5b611f9687828801611ec9565b9350506040611fa787828801611ef3565b9250506060611fb887828801611eb4565b91505092959194509250565b600080600080600060a08688031215611fdc57600080fd5b600086013567ffffffffffffffff811115611ff657600080fd5b61200288828901611ec9565b955050602086013567ffffffffffffffff81111561201f57600080fd5b61202b88828901611ec9565b945050604061203c88828901611ef3565b935050606061204d88828901611eb4565b925050608061205e88828901611ef3565b9150509295509295909350565b60006020828403121561207d57600080fd5b600061208b84828501611ef3565b91505092915050565b600080604083850312156120a757600080fd5b60006120b585828601611ef3565b925050602083013567ffffffffffffffff8111156120d257600080fd5b6120de85828601611ec9565b9150509250929050565b60006120f483836122df565b905092915050565b6121058161260d565b82525050565b600061211682612578565b612120818561259b565b93508360208202850161213285612568565b8060005b8581101561216e578484038952815161214f85826120e8565b945061215a8361258e565b925060208a01995050600181019050612136565b50829750879550505050505092915050565b6121898161261f565b82525050565b6121988161261f565b82525050565b6121a781612668565b82525050565b6121b681612668565b82525050565b60006121c782612583565b6121d181856125ac565b93506121e1818560208601612689565b6121ea8161281d565b840191505092915050565b600061220082612583565b61220a81856125bd565b935061221a818560208601612689565b6122238161281d565b840191505092915050565b600061223982612583565b61224381856125ce565b9350612253818560208601612689565b80840191505092915050565b600061226c6012836125bd565b91507f52656164206163636573732064656e69656400000000000000000000000000006000830152602082019050919050565b60006122ac6007836125ce565b91507f64656c65746564000000000000000000000000000000000000000000000000006000830152600782019050919050565b600060c0830160008301516122f7600086018261236f565b506020830151848203602086015261230f82826121bc565b9150506040830151848203604086015261232982826121bc565b915050606083015161233e606086018261236f565b5060808301516123516080860182612180565b5060a083015161236460a086018261219e565b508091505092915050565b6123788161265e565b82525050565b6123878161265e565b82525050565b6000612399828461222e565b915081905092915050565b60006123af8261229f565b9150819050919050565b60006020820190506123ce60008301846120fc565b92915050565b600060208201905081810360008301526123ee818461210b565b905092915050565b6000602082019050818103600083015261241081846121f5565b905092915050565b600060208201905081810360008301526124318161225f565b9050919050565b600060208201905061244d600083018461237e565b92915050565b6000606082019050612468600083018661237e565b818103602083015261247a81856121f5565b9050818103604083015261248e81846121f5565b9050949350505050565b600060c0820190506124ad600083018961237e565b81810360208301526124bf81886121f5565b905081810360408301526124d381876121f5565b90506124e2606083018661237e565b6124ef608083018561218f565b6124fc60a08301846121ad565b979650505050505050565b6000604051905081810181811067ffffffffffffffff8211171561252e5761252d6127ee565b5b8060405250919050565b600067ffffffffffffffff821115612553576125526127ee565b5b601f19601f8301169050602081019050919050565b6000819050602082019050919050565b600081519050919050565b600081519050919050565b6000602082019050919050565b600082825260208201905092915050565b600082825260208201905092915050565b600082825260208201905092915050565b600081905092915050565b60006125e48261265e565b91506125ef8361265e565b92508282101561260257612601612761565b5b828203905092915050565b60006126188261263e565b9050919050565b60008115159050919050565b60008190506126398261282e565b919050565b600073ffffffffffffffffffffffffffffffffffffffff82169050919050565b6000819050919050565b60006126738261262b565b9050919050565b82818337600083830152505050565b60005b838110156126a757808201518184015260208101905061268c565b838111156126b6576000848401525b50505050565b60006126c78261265e565b915060008214156126db576126da612761565b5b600182039050919050565b600060028204905060018216806126fe57607f821691505b60208210811415612712576127116127bf565b5b50919050565b60006127238261265e565b91507fffffffffffffffffffffffffffffffffffffffffffffffffffffffffffffffff82141561275657612755612761565b5b600182019050919050565b7f4e487b7100000000000000000000000000000000000000000000000000000000600052601160045260246000fd5b7f4e487b7100000000000000000000000000000000000000000000000000000000600052602160045260246000fd5b7f4e487b7100000000000000000000000000000000000000000000000000000000600052602260045260246000fd5b7f4e487b7100000000000000000000000000000000000000000000000000000000600052604160045260246000fd5b6000601f19601f8301169050919050565b6003811061283f5761283e612790565b5b50565b61284b8161260d565b811461285657600080fd5b50565b6128628161261f565b811461286d57600080fd5b50565b6128798161265e565b811461288457600080fd5b5056fea26469706673582212208ca3cd449f7ff20e1efde134fe6d996e5af350893e25c74ff7678537d255810864736f6c63430008000033",
  "immutableReferences": {},
  "source": "pragma solidity 0.8.0;\n\n// SPDX-License-Identifier: MIT\n\ncontract todo {\n    address public owner;\n    uint public currentIndex = 0;\n    uint public totalFriends = 0;\n    uint public totalTasks = 0;\n    mapping(uint => Task) private tasks;\n    enum Priorities { LOW, MEDIUM, HIGH}\n    Priorities constant defaultPriority = Priorities.LOW;\n    address[] public friends;\n\n    struct Task {\n        uint id;\n        string description;\n        string status;\n        uint256 dueDate;\n        bool privateTask;\n        Priorities priority;\n    }\n\n    event TaskCreated(\n        uint id,\n        string description,\n        string status,\n        uint256 dueDate,\n        bool privateTask,\n        Priorities priority\n    );\n\n    event TaskStatusUpdated(\n        uint id,\n        string prevStatus,\n        string newStatus\n    );\n\n    event TaskDeleted(\n        uint id\n    );\n\n    event FriendAdded(\n        address friend\n    );\n\n    event FriendRemoved(\n        address friend\n    );\n\n    constructor() {\n        owner = msg.sender;\n    }\n\n    modifier _ownerOnly(){\n        require(msg.sender == owner);\n        _;\n    }\n\n    function createTask(string memory _taskDescription, string memory _status, uint256 _dueDate, bool _privateTask ) public {\n        tasks[currentIndex] = Task(currentIndex, _taskDescription, _status, _dueDate, _privateTask, defaultPriority);\n        emit TaskCreated(currentIndex, _taskDescription, _status, _dueDate, _privateTask, defaultPriority);\n        currentIndex++;\n        totalTasks++;\n    }\n\n    function createTask(string memory _taskDescription, string memory _status, uint256 _dueDate, bool _privateTask, uint _priority ) public {\n        Priorities priority = Priorities(_priority);\n        tasks[currentIndex] = Task(currentIndex, _taskDescription, _status, _dueDate, _privateTask, priority);\n        emit TaskCreated(currentIndex, _taskDescription, _status, _dueDate, _privateTask, priority);\n        currentIndex++;\n        totalTasks++;\n    }\n\n    function updateTaskStatus(uint _id, string memory _status) public {\n        Task memory _task = tasks[_id];\n        string memory _prevStatus = _task.status;\n        _task.status = _status;\n        tasks[_id] = _task;\n        emit TaskStatusUpdated(_id, _prevStatus, _status);\n    }\n\n    function deleteTask(uint _id) public {\n        Task memory _task = tasks[_id];\n        _task.status = 'deleted';\n        tasks[_id] = _task;\n        totalTasks--;\n        emit TaskDeleted(_id);\n    }\n\n    function addFriend(address _toAdd) public {\n        friends.push(_toAdd);\n        totalFriends++;\n        emit FriendAdded(_toAdd);\n    }\n\n    function removeFriend(address _toRemove) public {\n        for(uint i=0; i<friends.length; i++) {\n            if (friends[i] == _toRemove) {\n                friends[i] = friends[friends.length - 1];\n                friends.pop();\n                totalFriends--;\n                emit FriendRemoved(_toRemove);\n            }\n        }\n    }\n\n    function getPriority(uint _id) public view returns (string memory) {\n        Task memory _task = tasks[_id];\n        return getPriorityWithInt(_task.priority);\n    }\n\n    function getTasks() public view returns (Task[] memory) {\n        require(validAddress(msg.sender), 'Read access denied');\n\n        bool[] memory tasksToReturn = new bool[](currentIndex);\n        uint localCounter = 0;\n\n        for (uint256 i=0; i< currentIndex; i++) {\n            Task memory _task = tasks[i];\n            if (keccak256(abi.encodePacked((_task.status))) != keccak256(abi.encodePacked(('deleted')))) {\n                if (msg.sender == owner || !_task.privateTask) {\n                    tasksToReturn[i] = true;\n                    localCounter++;\n                }\n            }\n        }\n\n        Task[] memory _tasks = new Task[](localCounter);\n        uint returnCounter = 0;\n        for (uint j=0; j<currentIndex; j++) {\n            if (tasksToReturn[j]) {\n                _tasks[returnCounter] = tasks[j];\n                returnCounter++;\n            }\n        }\n\n        return _tasks;\n    }\n\n    function getPriorityWithInt(Priorities _priority) internal pure returns (string memory) {\n        require(uint8(_priority) <= 2);\n\n        if (Priorities.LOW == _priority) return \"LOW\";\n        if (Priorities.MEDIUM == _priority) return \"MEDIUM\";\n        if (Priorities.HIGH == _priority) return \"HIGH\";\n\n        return \"\";\n    }\n\n    function validAddress(address toCheck) internal view returns (bool) {\n        bool valid = false;\n        if (toCheck == owner) {\n            valid = true;\n        } else {\n            for (uint i=0; i<totalFriends; i++) {\n                if (friends[i] == toCheck) {\n                    valid = true;\n                }\n            }\n        }\n\n        return valid;\n    }\n}",
  "sourcePath": "/Users/clement/private/todo_list/contracts/todo.sol",
  "compiler": {
    "name": "solc",
    "version": "0.8.0+commit.c7dfd78e.Emscripten.clang"
  },
  "schemaVersion": "3.4.1",
  "updatedAt": "2022-01-23T18:45:43.587Z",
  "networkType": "ethereum",
  "devdoc": {
    "kind": "dev",
    "methods": {},
    "version": 1
  },
  "userdoc": {
    "kind": "user",
    "methods": {},
    "version": 1
  }
}